:0300000001fffffe
:0300010001fff903
:0300020001ffe912
:0300030001ffcd2d
:0300040001ffa653
:0300050001ff7484
:0300060001ff37c0
:0300070001feef08
:0300080001fe9c5a
:0300090001fe3eb7
:03000a0001fdd421
:03000b0001fd6094
:03000c0001fce014
:03000d0001fc569d
:03000e0001fbc033
:03000f0001fb20d2
:0300100001fa747e
:0300110001f9be34
:0300120001f8fcf6
:0300130001f830c1
:0300140001f75998
:0300150001f6767b
:0300160001f58968
:0300170001f49160
:0300180001f38e63
:0300190001f28170
:03001a0001f16889
:03001b0001f045ac
:03001c0001ef17da
:03001d0001edde14
:03001e0001ec9a58
:03001f0001eb4ca6
:0300200001e9f300
:0300210001e89063
:0300220001e722d1
:0300230001e5a94b
:0300240001e426ce
:0300250001e2985d
:0300260001e100f5
:0300270001df5d99
:0300280001ddb047
:0300290001dbf9ff
:03002a0001da37c1
:03002b0001d86b8e
:03002c0001d69565
:03002d0001d4b546
:03002e0001d2ca32
:03002f0001d0d627
:0300300001ced727
:0300310001ccce31
:0300320001cabb45
:0300330001c89e63
:0300340001c6788a
:0300350001c447bc
:0300360001c20df7
:0300370001bfc93d
:0300380001bd7b8c
:0300390001bb24e4
:03003a0001b8c347
:03003b0001b658b3
:03003c0001b3e429
:03003d0001b166a8
:03003e0001aedf31
:03003f0001ac4fc2
:0300400001a9b65d
:0300410001a71301
:0300420001a467af
:0300430001a1b266
:03004400019ef327
:03004500019c2cef
:0300460001995cc1
:030047000196839c
:030048000193a180
:030049000190b76c
:03004a00018dc461
:03004b00018ac85f
:03004c000187c366
:03004d000184b675
:03004e000181a18c
:03004f00017e83ac
:03005000017b5dd4
:0300510001782f04
:030052000174f93d
:030053000171ba7e
:03005400016e74c6
:03005500016b2517
:030056000167cf70
:03005700016471d0
:0300580001610b38
:03005900015d9da9
:03005a00015a2820
:03005b000156ac9f
:03005c0001532726
:03005d00014f9cb4
:03005e00014c0949
:03005f00014870e5
:030060000144cf89
:0300610001412733
:03006200013d78e5
:030063000139c29e
:030064000136055d
:0300650001324223
:03006600012e77f1
:03006700012aa7c4
:030068000126d09e
:030069000122f27f
:03006a00011f0e65
:03006b00011b2452
:03006c0001173445
:03006d0001133e3e
:03006e00010f423d
:03006f00010b4042
:030070000107384d
:0300710001032a5e
:0300720000ff1775
:0300730000fafe92
:0300740000f6e0b3
:0300750000f2bdd9
:0300760000ee9405
:0300770000ea6636
:0300780000e6336c
:0300790000e1fba8
:03007a0000ddbee8
:03007b0000d97c2d
:03007c0000d53676
:03007d0000d0ebc5
:03007e0000cc9b18
:03007f0000c8476f
:0300800000c3efcb
:0300810000bf922b
:0300820000bb318f
:0300830000b6ccf8
:0300840000b26463
:0300850000adf7d4
:0300860000a98648
:0300870000a512bf
:0300880000a09b3a
:03008900009c1fb9
:03008a000097a13b
:03008b0000931fc0
:03008c00008e9a49
:03008d00008a12d4
:03008e0000858763
:03008f000080f8f6
:03009000007c6889
:030091000077d421
:0300920000733eba
:03009300006ea557
:03009400006a0af5
:0300950000656d96
:030096000060cd3a
:03009700005c2cde
:0300980000578886
:030099000052e32f
:03009a00004e3bda
:03009b0000499287
:03009c000044e835
:03009d0000403ce4
:03009e00003b8e96
:03009f000036df49
:0300a00000322ffc
:0300a100002d7eb1
:0300a2000028cc67
:0300a3000024191d
:0300a400001f65d5
:0300a500001ab18d
:0300a6000015fc46
:0300a700001146ff
:0300a800000c91b8
:0300a9000007db72
:0300aa000003242c
:0300ab0003fe6ee3
:0300ac0003f9b89d
:0300ad0003f50157
:0300ae0003f04b11
:0300af0003eb96ca
:0300b00003e6e183
:0300b10003e22c3b
:0300b20003dd78f3
:0300b30003d8c5aa
:0300b40003d41260
:0300b50003cf6115
:0300b60003cab1c9
:0300b70003c6017c
:0300b80003c1542d
:0300b90003bca7de
:0300ba0003b7fc8d
:0300bb0003b3523a
:0300bc0003aeaae6
:0300bd0003aa048f
:0300be0003a56037
:0300bf0003a0bedd
:0300c000039c1d81
:0300c10003977f23
:0300c2000392e3c3
:0300c300038e4a5f
:0300c4000389b3fa
:0300c50003851f91
:0300c60003808d27
:0300c700037bfeba
:0300c80003777249
:0300c9000372e9d6
:0300ca00036e6260
:0300cb000369dfe7
:0300cc0003656069
:0300cd000360e3ea
:0300ce00035c6b65
:0300cf000357f5df
:0300d00003538453
:0300d100034f16c4
:0300d200034aab33
:0300d3000346459c
:0300d4000341e302
:0300d500033d8563
:0300d60003392bc0
:0300d7000334d619
:0300d8000330856d
:0300d900032c38bd
:0300da000327f009
:0300db000323ad4f
:0300dc00031f6e91
:0300dd00031b34ce
:0300de0003170005
:0300df000312d039
:0300e000030ea666
:0300e100030a808f
:0300e200030660b2
:0300e300030246cf
:0300e40002fe31e8
:0300e50002fa21fb
:0300e60002f61708
:0300e70002f2130f
:0300e80002ee1510
:0300e90002ea1d0b
:0300ea0002e62b00
:0300eb0002e23fef
:0300ec0002de59d8
:0300ed0002da79bb
:0300ee0002d6a097
:0300ef0002d2cd6d
:0300f00002cf013b
:0300f10002cb3b04
:0300f20002c77dc5
:0300f30002c3c481
:0300f40002c01334
:0300f50002bc69e1
:0300f60002b8c588
:0300f70002b52926
:0300f80002b194be
:0300f90002ae064e
:0300fa0002aa80d7
:0300fb0002a70158
:0300fc0002a389d3
:0300fd0002a01945
:0300fe00029cb0b1
:0300ff0002995013
:030100000295f76e
:030101000292a6c1
:03010200028f5d0c
:03010300028c1b50
:030104000288e28c
:030105000285b1bf
:03010600028289e9
:03010700027f680c
:03010800027c5026
:0301090002794038
:03010a0002763941
:03010b0002733a42
:03010c000270443a
:03010d00026d5729
:03010e00026a7210
:03010f00026796ee
:030110000264c3c3
:030111000261f98f
:03011200025f3752
:03011300025c7f0c
:030114000259d0bd
:0301150002572a64
:0301160002548e02
:030117000251fa98
:03011800024f7023
:03011900024cefa6
:03011a00024a781e
:03011b0002480a8d
:03011c000245a6f3
:03011d0002434c4e
:03011e000240fba1
:03011f00023eb3ea
:03012000023c7628
:03012100023a425d
:0301220002381888
:030123000235f8aa
:030124000233e2c1
:030125000231d6ce
:03012600022fd4d1
:03012700022ddcca
:03012800022beeb9
:03012900022a0a9d
:03012a0002283078
:03012b0002266148
:03012c0002249c0e
:03012d000222e1ca
:03012e000221317a
:03012f00021f8b21
:03013000021defbe
:03013100021c5e4f
:03013200021ad7d7
:0301330002195b53
:030134000217e9c6
:030135000216822d
:0301360002152689
:030137000213d4dc
:0301380002128d23
:030139000211515f
:03013a0002101f91
:03013b00020ef8b9
:03013c00020ddcd5
:03013d00020ccae7
:03013e00020bc4ed
:03013f00020ac8e9
:030140000209d7da
:030141000208f2bf
:0301420002081799
:0301430002074769
:030144000206812f
:030145000205c7e9
:0301460002051897
:030147000204743b
:030148000203dbd4
:0301490002034d61
:03014a000202c9e5
:03014b000202515c
:03014c000201e4c9
:03014d000201822a
:03014e0002012b80
:03014f000200e0cb
:0301500002009f0b
:0301510002006940
:0301520002003f69
:0301530002001f88
:0301540002000b9b
:03015500020002a3
:03015600020003a1
:0301570002001093
:030158000200287a
:0301590002004c55
:03015a0002007a26
:03015b000200b3ec
:03015c000200f8a6
:03015d0002014755
:03015e000201a2f9
:03015f0002020792
:0301600002027820
:030161000202f4a3
:0301620002037b1a
:0301630002040d86
:030164000204a9e9
:030165000205513f
:030166000206048a
:030167000206c2cb
:0301680002078b00
:0301690002085e2b
:03016a0002093d4a
:03016b00020a275e
:03016c00020b1b68
:03016d00020c1a67
:03016e00020d245b
:03016f00020e3944
:03017000020f5922
:03017100021084f5
:030172000211b9be
:030173000212f97c
:030174000214432f
:03017500021599d7
:030176000216f975
:0301770002186308
:030178000219d891
:03017900021b580e
:03017a00021ce282
:03017b00021e77ea
:03017c0002201648
:03017d000221c09c
:03017e00022373e6
:03017f0002253224
:030180000226fa5a
:030181000228cd84
:03018200022aaaa4
:03018300022c91ba
:03018400022e82c6
:0301850002307ec7
:03018600023283bf
:03018700023493ac
:030188000236ac90
:030189000238d069
:03018a00023afd39
:03018b00023d34fe
:03018c00023f75ba
:03018d000241bf6d
:03018e0002441315
:03018f00024671b4
:030190000248d949
:03019100024b4ad4
:03019200024dc457
:03019300025048cf
:030194000252d53f
:0301950002556ca4
:0301960002580b01
:03019700025ab455
:03019800025d669f
:03019900026022df
:03019a000262e618
:03019b000265b347
:03019c000268896d
:03019d00026b688a
:03019e00026e4f9f
:03019f00027140aa
:0301a000027439ad
:0301a10002773aa8
:0301a200027a449a
:0301a300027d5783
:0301a40002807264
:0301a5000283953d
:0301a6000286c10d
:0301a7000289f4d6
:0301a800028d3095
:0301a9000290744d
:0301aa000293c0fd
:0301ab00029714a4
:0301ac00029a6f45
:0301ad00029dd2de
:0301ae0002a13d6e
:0301af0002a4b0f7
:0301b00002a82a78
:0301b10002abacf2
:0301b20002af3564
:0301b30002b2c5d0
:0301b40002b65c34
:0301b50002b9fb91
:0301b60002bda1e6
:0301b70002c14d35
:0301b80002c5017c
:0301b90002c8bbbe
:0301ba0002cc7df7
:0301bb0002d0442b
:0301bc0002d41357
:0301bd0002d7e87e
:0301be0002dbc39e
:0301bf0002dfa5b7
:0301c00002e38dca
:0301c10002e77bd7
:0301c20002eb6fde
:0301c30002ef69df
:0301c40002f36ad9
:0301c50002f76fcf
:0301c60002fb7bbe
:0301c70002ff8ca8
:0301c8000303a38b
:0301c9000307c069
:0301ca00030be143
:0301cb0003100816
:0301cc00031435e4
:0301cd00031866ae
:0301ce00031c9c73
:0301cf000320d832
:0301d000032518ec
:0301d10003295da2
:0301d200032da654
:0301d3000331f401
:0301d400033647a8
:0301d500033a9e4c
:0301d600033ef9ec
:0301d70003435986
:0301d8000347bc1e
:0301d900034c24b0
:0301da0003508f40
:0301db000354fecc
:0301dc0003597153
:0301dd00035de8d7
:0301de0003626257
:0301df000366dfd5
:0301e000036b604e
:0301e100036fe4c5
:0301e20003746b38
:0301e3000378f5a9
:0301e400037d8315
:0301e50003821280
:0301e6000386a5e8
:0301e700038b3a4d
:0301e800038fd2b0
:0301e90003946c10
:0301ea000399096d
:0301eb00039da8c9
:0301ec0003a24922
:0301ed0003a6ec7a
:0301ee0003ab91cf
:0301ef0003b03723
:0301f00003b4e075
:0301f10003b98ac5
:0301f20003be3613
:0301f30003c2e361
:0301f40003c791ad
:0301f50003cc41f7
:0301f60003d0f142
:0301f70003d5a38a
:0301f80003da56d1
:0301f90003df0918
:0301fa0003e3be5e
:0301fb0003e872a4
:0301fc0003ed28e8
:0301fd0003f1dd2e
:0301fe0003f69372
:0301ff0003fb4ab5
:00000001FF
