:03000000000000fd
:0300010000019269
:03000200000324d4
:030003000004b640
:03000400000648ab
:030005000007db16
:0300060000096d81
:03000700000affed
:03000800000c9158
:03000900000e23c3
:03000a00000fb52f
:03000b000011469b
:03000c000012d807
:03000d0000146a72
:03000e000015fcde
:03000f0000178e49
:0300100000191fb5
:03001100001ab121
:03001200001c428d
:03001300001dd4f9
:03001400001f6565
:030015000020f7d1
:030016000022883d
:03001700002419a9
:030018000025aa16
:0300190000273b82
:03001a000028ccef
:03001b00002a5d5b
:03001c00002beec8
:03001d00002d7e35
:03001e00002f0fa1
:03001f0000309f0f
:0300200000322f7c
:030021000033bfea
:0300220000354f57
:030023000036dfc5
:0300240000386f32
:030025000039ffa0
:03002600003b8e0e
:03002700003d1d7c
:03002800003eaceb
:0300290000403c58
:03002a000041cac8
:03002b0000435936
:03002c000044e8a5
:03002d0000467614
:03002e0000480483
:03002f00004992f3
:03003000004b2062
:03003100004caed2
:03003200004e3b42
:03003300004fc9b2
:0300340000515622
:030035000052e393
:0300360000546f04
:030037000055fc75
:03003800005788e6
:0300390000591457
:03003a00005aa0c9
:03003b00005c2c3a
:03003c00005db7ad
:03003d00005f421f
:03003e000060cd92
:03003f0000625804
:030040000063e377
:0300410000656dea
:030042000066f75e
:03004300006881d1
:03004400006a0a45
:03004500006b94b9
:03004600006d1d2d
:03004700006ea5a3
:0300480000702e17
:030049000071b68d
:03004a0000733e02
:03004b000074c678
:03004c0000764dee
:03004d000077d465
:03004e0000795bdb
:03004f00007ae153
:03005000007c68c9
:03005100007dee41
:03005200007f73b9
:030053000080f832
:0300540000827daa
:0300550000840222
:030056000085879b
:0300570000870b14
:0300580000888e8f
:03005900008a1208
:03005a00008b9583
:03005b00008d17fe
:03005c00008e9a79
:03005d0000901cf4
:03005e0000919e70
:03005f0000931fec
:030060000094a069
:03006100009621e5
:030062000097a163
:03006300009921e0
:03006400009aa05f
:03006500009c1fdd
:03006600009d9e5c
:03006700009f1dda
:0300680000a09b5a
:0300690000a218da
:03006a0000a3955b
:03006b0000a512db
:03006c0000a68f5c
:03006d0000a80bdd
:03006e0000a98660
:03006f0000ab02e1
:0300700000ac7c65
:0300710000adf7e8
:0300720000af716b
:0300730000b0eaf0
:0300740000b26473
:0300750000b3dcf9
:0300760000b5557d
:0300770000b6cc04
:0300780000b84489
:0300790000b9bb10
:03007a0000bb3197
:03007b0000bca71f
:03007c0000be1da6
:03007d0000bf922f
:03007e0000c107b7
:03007f0000c27b41
:0300800000c3efcb
:0300810000c56255
:0300820000c6d5e0
:0300830000c8476b
:0300840000c9b9f7
:0300850000cb2a83
:0300860000cc9b10
:0300870000ce0c9c
:0300880000cf7b2b
:0300890000d0ebb9
:03008a0000d25a47
:03008b0000d3c8d7
:03008c0000d53666
:03008d0000d6a3f7
:03008e0000d81087
:03008f0000d97c19
:0300900000dae8ab
:0300910000dc533d
:0300920000ddbed0
:0300930000df2863
:0300940000e092f7
:0300950000e1fb8c
:0300960000e36420
:0300970000e4ccb6
:0300980000e6334c
:0300990000e79ae3
:03009a0000e9007a
:03009b0000ea6612
:03009c0000ebcbab
:03009d0000ed3043
:03009e0000ee94dd
:03009f0000eff877
:0300a00000f15a12
:0300a10000f2bdad
:0300a20000f41f48
:0300a30000f580e5
:0300a40000f6e083
:0300a50000f84020
:0300a60000f9a0be
:0300a70000fafe5e
:0300a80000fc5dfc
:0300a90000fdba9d
:0300aa0000ff173d
:0300ab00010074dd
:0300ac000101cf80
:0300ad0001032a22
:0300ae00010485c5
:0300af000105df69
:0300b0000107380d
:0300b100010891b2
:0300b2000109e958
:0300b300010b40fe
:0300b400010c96a6
:0300b500010ded4d
:0300b600010f42f5
:0300b7000110979e
:0300b8000111eb48
:0300b90001133ef2
:0300ba000114919d
:0300bb000115e349
:0300bc00011734f5
:0300bd00011885a2
:0300be000119d550
:0300bf00011b24fe
:0300c000011c73ad
:0300c100011dc15d
:0300c200011f0e0d
:0300c30001205bbe
:0300c4000121a770
:0300c5000122f223
:0300c60001243dd5
:0300c70001258789
:0300c8000126d03e
:0300c900012818f3
:0300ca00012960a9
:0300cb00012aa760
:0300cc00012bed18
:0300cd00012d33cf
:0300ce00012e7789
:0300cf00012fbc42
:0300d0000130fffd
:0300d100013242b7
:0300d20001338374
:0300d3000134c530
:0300d400013605ed
:0300d500013745ab
:0300d6000138836b
:0300d7000139c22a
:0300d800013affeb
:0300d900013c3cab
:0300da00013d786d
:0300db00013eb330
:0300dc00013fedf4
:0300dd00014127b7
:0300de0001425f7d
:0300df0001439743
:0300e0000144cf09
:0300e100014605d0
:0300e20001473b98
:0300e30001487061
:0300e4000149a42b
:0300e500014ad7f6
:0300e600014c09c1
:0300e700014d3b8d
:0300e800014e6c5a
:0300e900014f9c28
:0300ea000150cbf7
:0300eb000151fac6
:0300ec0001532796
:0300ed0001545467
:0300ee0001558039
:0300ef000156ac0b
:0300f0000157d6df
:0300f1000158ffb4
:0300f200015a2888
:0300f300015b505e
:0300f400015c7735
:0300f500015d9d0d
:0300f600015ec3e5
:0300f700015fe7bf
:0300f80001610b98
:0300f90001622e73
:0300fa000163504f
:0300fb000164712c
:0300fc000165910a
:0300fd000166b0e9
:0300fe000167cfc8
:0300ff000168eca9
:03010000016a0988
:03010100016b256a
:03010200016c404d
:03010300016d5a31
:03010400016e7415
:03010500016f8cfb
:030106000170a3e2
:030107000171bac9
:030108000172d0b1
:030109000173e59a
:03010a000174f984
:03010b0001760c6e
:03010c0001771e5a
:03010d0001782f47
:03010e0001793f35
:03010f00017a4f23
:03011000017b5d13
:03011100017c6b03
:03011200017d77f5
:03011300017e83e7
:03011400017f8eda
:03011500018098ce
:030116000181a1c3
:030117000182a9b9
:030118000183b0b0
:030119000184b6a8
:03011a000185bca0
:03011b000186c09a
:03011c000187c395
:03011d000188c690
:03011e000189c78d
:03011f00018ac88a
:03012000018bc789
:03012100018cc688
:03012200018dc488
:03012300018ec08a
:03012400018fbc8c
:030125000190b78f
:030126000191b193
:030127000192a999
:030128000193a19f
:03012900019498a6
:03012a0001958eae
:03012b00019683b7
:03012c00019777c1
:03012d0001986acc
:03012e0001995cd8
:03012f00019a4de5
:03013000019b3df3
:03013100019c2c02
:03013200019d1a12
:03013300019e0723
:03013400019ef336
:03013500019fde49
:0301360001a0c95c
:0301370001a1b271
:0301380001a29a87
:0301390001a3819e
:03013a0001a467b6
:03013b0001a54ccf
:03013c0001a630e9
:03013d0001a71304
:03013e0001a7f521
:03013f0001a8d63e
:0301400001a9b65c
:0301410001aa947c
:0301420001ab729c
:0301430001ac4fbd
:0301440001ad2bdf
:0301450001ae0602
:0301460001aedf28
:0301470001afb84d
:0301480001b09073
:0301490001b1669b
:03014a0001b23cc3
:03014b0001b311ec
:03014c0001b3e418
:03014d0001b4b644
:03014e0001b58870
:03014f0001b6589e
:0301500001b727cd
:0301510001b7f6fd
:0301520001b8c32e
:0301530001b98f60
:0301540001ba5a93
:0301550001bb24c7
:0301560001bbedfd
:0301570001bcb434
:0301580001bd7b6b
:0301590001be41a3
:03015a0001bf05dd
:03015b0001bfc918
:03015c0001c08b54
:03015d0001c14d90
:03015e0001c20dce
:03015f0001c2cc0e
:0301600001c38a4e
:0301610001c4478f
:0301620001c503d1
:0301630001c5be15
:0301640001c67859
:0301650001c7309f
:0301660001c7e8e6
:0301670001c89e2e
:0301680001c95476
:0301690001ca08c0
:03016a0001cabb0c
:03016b0001cb6d58
:03016c0001cc1ea5
:03016d0001cccef4
:03016e0001cd7d43
:03016f0001ce2a94
:0301700001ced7e6
:0301710001cf8239
:0301720001d02c8d
:0301730001d0d6e2
:0301740001d17e38
:0301750001d22490
:0301760001d2cae9
:0301770001d36f42
:0301780001d4129d
:0301790001d4b5f9
:03017a0001d55656
:03017b0001d5f6b5
:03017c0001d69514
:03017d0001d73374
:03017e0001d7d0d6
:03017f0001d86b39
:0301800001d9069c
:0301810001d99f02
:0301820001da3768
:0301830001daced0
:0301840001db6438
:0301850001dbf9a2
:0301860001dc8d0c
:0301870001dd1f78
:0301880001ddb0e6
:0301890001de4054
:03018a0001decfc4
:03018b0001df5d34
:03018c0001dfeaa6
:03018d0001e07519
:03018e0001e1008c
:03018f0001e18902
:0301900001e21178
:0301910001e298f0
:0301920001e31e68
:0301930001e3a2e3
:0301940001e4265d
:0301950001e4a8da
:0301960001e52957
:0301970001e5a9d6
:0301980001e62855
:0301990001e6a5d7
:03019a0001e72258
:03019b0001e79ddc
:03019c0001e81760
:03019d0001e890e6
:03019e0001e9076d
:03019f0001e97ef5
:0301a00001e9f37f
:0301a10001ea6709
:0301a20001eada95
:0301a30001eb4c21
:0301a40001ebbdaf
:0301a50001ec2c3e
:0301a60001ec9acf
:0301a70001ed0760
:0301a80001ed73f3
:0301a90001edde87
:0301aa0001ee471c
:0301ab0001eeafb3
:0301ac0001ef1749
:0301ad0001ef7ce3
:0301ae0001efe17d
:0301af0001f04517
:0301b00001f0a7b4
:0301b10001f10851
:0301b20001f168f0
:0301b30001f1c790
:0301b40001f22431
:0301b50001f281d3
:0301b60001f2dc77
:0301b70001f3361b
:0301b80001f38ec2
:0301b90001f3e669
:0301ba0001f43c11
:0301bb0001f491bb
:0301bc0001f4e566
:0301bd0001f53811
:0301be0001f589bf
:0301bf0001f5d96e
:0301c00001f6291c
:0301c10001f676ce
:0301c20001f6c380
:0301c30001f70e33
:0301c40001f759e7
:0301c50001f7a29d
:0301c60001f7e955
:0301c70001f8300c
:0301c80001f875c6
:0301c90001f8b981
:0301ca0001f8fc3d
:0301cb0001f93ef9
:0301cc0001f97fb7
:0301cd0001f9be77
:0301ce0001f9fc38
:0301cf0001fa39f9
:0301d00001fa74bd
:0301d10001faaf81
:0301d20001fae847
:0301d30001fb200d
:0301d40001fb57d5
:0301d50001fb8c9f
:0301d60001fbc06a
:0301d70001fbf336
:0301d80001fc2502
:0301d90001fc56d0
:0301da0001fc85a0
:0301db0001fcb371
:0301dc0001fce043
:0301dd0001fd0c15
:0301de0001fd37e9
:0301df0001fd60bf
:0301e00001fd8896
:0301e10001fdaf6e
:0301e20001fdd448
:0301e30001fdf922
:0301e40001fe1cfd
:0301e50001fe3eda
:0301e60001fe5eb9
:0301e70001fe7e98
:0301e80001fe9c79
:0301e90001feb95b
:0301ea0001fed53e
:0301eb0001feef23
:0301ec0001ff0808
:0301ed0001ff20ef
:0301ee0001ff37d7
:0301ef0001ff4dc0
:0301f00001ff61ab
:0301f10001ff7497
:0301f20001ff8684
:0301f30001ff9772
:0301f40001ffa662
:0301f50001ffb453
:0301f60001ffc145
:0301f70001ffcd38
:0301f80001ffd82c
:0301f90001ffe122
:0301fa0001ffe919
:0301fb0001fff011
:0301fc0001fff50b
:0301fd0001fff906
:0301fe0001fffd01
:0301ff0001fffeff
:00000001FF
