:03000000000000fd
:03000100000324d5
:03000200000648ad
:0300030000096d84
:03000400000c915c
:03000500000fb534
:030006000012d80d
:030007000015fce5
:0300080000191fbd
:03000900001c4296
:03000a00001f656f
:03000b0000228848
:03000c000025aa22
:03000d000028ccfc
:03000e00002beed6
:03000f00002f0fb0
:0300100000322f8c
:0300110000354f68
:0300120000386f44
:03001300003b8e21
:03001400003eacff
:030015000041cadd
:030016000044e8bb
:030017000048049a
:03001800004b207a
:03001900004e3b5b
:03001a000051563c
:03001b0000546f1f
:03001c0000578802
:03001d00005aa0e6
:03001e00005db7cb
:03001f000060cdb1
:030020000063e397
:030021000066f77f
:03002200006a0a67
:03002300006d1d50
:0300240000702e3b
:0300250000733e27
:0300260000764d14
:0300270000795b02
:03002800007c68f1
:03002900007f73e2
:03002a0000827dd4
:03002b00008587c6
:03002c0000888ebb
:03002d00008b95b0
:03002e00008e9aa7
:03002f0000919e9f
:030030000094a099
:030031000097a194
:03003200009aa091
:03003300009d9e8f
:0300340000a09b8e
:0300350000a39590
:0300360000a68f92
:0300370000a98697
:0300380000ac7c9d
:0300390000af71a4
:03003a0000b264ad
:03003b0000b555b8
:03003c0000b844c5
:03003d0000bb31d4
:03003e0000be1de4
:03003f0000c107f6
:0300400000c3ef0b
:0300410000c6d521
:0300420000c9b939
:0300430000cc9b53
:0300440000cf7b6f
:0300450000d25a8c
:0300460000d536ac
:0300470000d810ce
:0300480000dae8f3
:0300490000ddbe19
:03004a0000e09241
:03004b0000e3646b
:03004c0000e63398
:03004d0000e900c7
:03004e0000ebcbf9
:03004f0000ee942c
:0300500000f15a62
:0300510000f41f99
:0300520000f6e0d5
:0300530000f9a011
:0300540000fc5d50
:0300550000ff1792
:030056000101cfd6
:030057000104851c
:0300580001073865
:030059000109e9b1
:03005a00010c9600
:03005b00010f4250
:03005c000111eba4
:03005d00011491fa
:03005e0001173453
:03005f000119d5af
:03006000011c730d
:03006100011f0e6e
:030062000121a7d2
:0300630001243d38
:030064000126d0a2
:030065000129600e
:03006600012bed7e
:03006700012e77f0
:030068000130ff65
:03006900013383dd
:03006a0001360557
:03006b00013883d6
:03006c00013aff57
:03006d00013d78da
:03006e00013fed62
:03006f0001425fec
:030070000144cf79
:0300710001473b09
:030072000149a49d
:03007300014c0934
:03007400014e6cce
:030075000150cb6c
:030076000153270c
:03007700015580b0
:030078000157d657
:03007900015a2801
:03007a00015c77af
:03007b00015ec360
:03007c0001610b14
:03007d00016350cc
:03007e0001659188
:03007f000167cf47
:03008000016a0909
:03008100016c40cf
:03008200016e7498
:030083000170a366
:030084000172d036
:030085000174f90a
:0300860001771ee1
:0300870001793fbd
:03008800017b5d9c
:03008900017d777f
:03008a00017f8e65
:03008b000181a14f
:03008c000183b03d
:03008d000185bc2e
:03008e000187c324
:03008f000189c71d
:03009000018bc71a
:03009100018dc41a
:03009200018fbc1f
:030093000191b127
:030094000193a134
:0300950001958e44
:0300960001977758
:0300970001995c70
:03009800019b3d8c
:03009900019d1aac
:03009a00019ef3d1
:03009b0001a0c9f8
:03009c0001a29a24
:03009d0001a46754
:03009e0001a63088
:03009f0001a7f5c1
:0300a00001a9b6fd
:0300a10001ab723e
:0300a20001ad2b82
:0300a30001aedfcc
:0300a40001b09018
:0300a50001b23c69
:0300a60001b3e4bf
:0300a70001b58818
:0300a80001b72776
:0300a90001b8c3d8
:0300aa0001ba5a3e
:0300ab0001bbeda9
:0300ac0001bd7b18
:0300ad0001bf058b
:0300ae0001c08b03
:0300af0001c20d7e
:0300b00001c38aff
:0300b10001c50383
:0300b20001c6780c
:0300b30001c7e89a
:0300b40001c9542b
:0300b50001cabbc2
:0300b60001cc1e5c
:0300b70001cd7dfb
:0300b80001ced79f
:0300b90001d02c47
:0300ba0001d17ef3
:0300bb0001d2caa5
:0300bc0001d4125a
:0300bd0001d55614
:0300be0001d695d3
:0300bf0001d7d096
:0300c00001d9065d
:0300c10001da372a
:0300c20001db64fb
:0300c30001dc8dd0
:0300c40001ddb0ab
:0300c50001decf8a
:0300c60001dfea6d
:0300c70001e10054
:0300c80001e21141
:0300c90001e31e32
:0300ca0001e42628
:0300cb0001e52923
:0300cc0001e62822
:0300cd0001e72226
:0300ce0001e8172f
:0300cf0001e9073d
:0300d00001e9f350
:0300d10001eada67
:0300d20001ebbd82
:0300d30001ec9aa3
:0300d40001ed73c8
:0300d50001ee47f2
:0300d60001ef1720
:0300d70001efe155
:0300d80001f0a78d
:0300d90001f168ca
:0300da0001f2240c
:0300db0001f2dc53
:0300dc0001f38e9f
:0300dd0001f43cef
:0300de0001f4e545
:0300df0001f5899f
:0300e00001f629fd
:0300e10001f6c362
:0300e20001f759ca
:0300e30001f7e939
:0300e40001f875ab
:0300e50001f8fc23
:0300e60001f97f9e
:0300e70001f9fc20
:0300e80001fa74a6
:0300e90001fae831
:0300ea0001fb57c0
:0300eb0001fbc056
:0300ec0001fc25ef
:0300ed0001fc858e
:0300ee0001fce032
:0300ef0001fd37d9
:0300f00001fd8887
:0300f10001fdd43a
:0300f20001fe1cf0
:0300f30001fe5ead
:0300f40001fe9c6e
:0300f50001fed534
:0300f60001ff08ff
:0300f70001ff37cf
:0300f80001ff61a4
:0300f90001ff867e
:0300fa0001ffa65d
:0300fb0001ffc141
:0300fc0001ffd829
:0300fd0001ffe917
:0300fe0001fff50a
:0300ff0001fffd01
:0301000001fffffd
:0301010001fffdfe
:0301020001fff505
:0301030001ffe910
:0301040001ffd820
:0301050001ffc136
:0301060001ffa650
:0301070001ff866f
:0301080001ff6193
:0301090001ff37bc
:03010a0001ff08ea
:03010b0001fed51d
:03010c0001fe9c55
:03010d0001fe5e92
:03010e0001fe1cd3
:03010f0001fdd41b
:0301100001fd8866
:0301110001fd37b6
:0301120001fce00d
:0301130001fc8567
:0301140001fc25c6
:0301150001fbc02b
:0301160001fb5793
:0301170001fae802
:0301180001fa7475
:0301190001f9fced
:03011a0001f97f69
:03011b0001f8fcec
:03011c0001f87572
:03011d0001f7e9fe
:03011e0001f7598d
:03011f0001f6c323
:0301200001f629bc
:0301210001f5895c
:0301220001f4e500
:0301230001f43ca8
:0301240001f38e56
:0301250001f2dc08
:0301260001f224bf
:0301270001f1687b
:0301280001f0a73c
:0301290001efe102
:03012a0001ef17cb
:03012b0001ee479b
:03012c0001ed736f
:03012d0001ec9a48
:03012e0001ebbd25
:03012f0001eada08
:0301300001e9f3ef
:0301310001e907da
:0301320001e817ca
:0301330001e722bf
:0301340001e628b9
:0301350001e529b8
:0301360001e426bb
:0301370001e31ec3
:0301380001e211d0
:0301390001e100e1
:03013a0001dfeaf8
:03013b0001decf13
:03013c0001ddb032
:03013d0001dc8d55
:03013e0001db647e
:03013f0001da37ab
:0301400001d906dc
:0301410001d7d013
:0301420001d6954e
:0301430001d5568d
:0301440001d412d1
:0301450001d2ca1a
:0301460001d17e66
:0301470001d02cb8
:0301480001ced70e
:0301490001cd7d68
:03014a0001cc1ec7
:03014b0001cabb2b
:03014c0001c95492
:03014d0001c7e8ff
:03014e0001c6786f
:03014f0001c503e4
:0301500001c38a5e
:0301510001c20ddb
:0301520001c08b5e
:0301530001bf05e4
:0301540001bd7b6f
:0301550001bbedfe
:0301560001ba5a91
:0301570001b8c329
:0301580001b727c5
:0301590001b58865
:03015a0001b3e40a
:03015b0001b23cb2
:03015c0001b0905f
:03015d0001aedf11
:03015e0001ad2bc5
:03015f0001ab727f
:0301600001a9b63c
:0301610001a7f5fe
:0301620001a630c3
:0301630001a4678d
:0301640001a29a5b
:0301650001a0c92d
:03016600019ef304
:03016700019d1add
:03016800019b3dbb
:0301690001995c9d
:03016a0001977783
:03016b0001958e6d
:03016c000193a15b
:03016d000191b14c
:03016e00018fbc42
:03016f00018dc43b
:03017000018bc739
:030171000189c73a
:030172000187c33f
:030173000185bc47
:030174000183b054
:030175000181a164
:03017600017f8e78
:03017700017d7790
:03017800017b5dab
:0301790001793fca
:03017a0001771eec
:03017b000174f913
:03017c000172d03d
:03017d000170a36b
:03017e00016e749b
:03017f00016c40d0
:03018000016a0908
:030181000167cf44
:0301820001659183
:03018300016350c5
:0301840001610b0b
:03018500015ec355
:03018600015c77a2
:03018700015a28f2
:030188000157d646
:030189000155809d
:03018a00015327f7
:03018b000150cb55
:03018c00014e6cb5
:03018d00014c0919
:03018e000149a480
:03018f0001473bea
:030190000144cf58
:0301910001425fc9
:03019200013fed3d
:03019300013d78b3
:03019400013aff2e
:03019500013883ab
:030196000136052a
:03019700013383ae
:030198000130ff34
:03019900012e77bd
:03019a00012bed49
:03019b00012960d7
:03019c000126d069
:03019d0001243dfd
:03019e000121a795
:03019f00011f0e2f
:0301a000011c73cc
:0301a1000119d56c
:0301a2000117340e
:0301a300011491b3
:0301a4000111eb5b
:0301a500010f4205
:0301a600010c96b3
:0301a7000109e962
:0301a80001073814
:0301a900010485c9
:0301aa000101cf81
:0301ab0000ff173b
:0301ac0000fc5df7
:0301ad0000f9a0b6
:0301ae0000f6e078
:0301af0000f41f3a
:0301b00000f15a01
:0301b10000ee94c9
:0301b20000ebcb94
:0301b30000e90060
:0301b40000e6332f
:0301b50000e36400
:0301b60000e092d4
:0301b70000ddbeaa
:0301b80000dae882
:0301b90000d8105b
:0301ba0000d53637
:0301bb0000d25a15
:0301bc0000cf7bf6
:0301bd0000cc9bd8
:0301be0000c9b9bc
:0301bf0000c6d5a2
:0301c00000c3ef8a
:0301c10000c10773
:0301c20000be1d5f
:0301c30000bb314d
:0301c40000b8443c
:0301c50000b5552d
:0301c60000b26420
:0301c70000af7115
:0301c80000ac7c0c
:0301c90000a98604
:0301ca0000a68ffd
:0301cb0000a395f9
:0301cc0000a09bf5
:0301cd00009d9ef4
:0301ce00009aa0f4
:0301cf000097a1f5
:0301d0000094a0f8
:0301d10000919efc
:0301d200008e9a02
:0301d300008b9509
:0301d40000888e12
:0301d5000085871b
:0301d60000827d27
:0301d700007f7333
:0301d800007c6840
:0301d90000795b4f
:0301da0000764d5f
:0301db0000733e70
:0301dc0000702e82
:0301dd00006d1d95
:0301de00006a0aaa
:0301df000066f7c0
:0301e0000063e3d6
:0301e1000060cdee
:0301e200005db706
:0301e300005aa01f
:0301e40000578839
:0301e50000546f54
:0301e6000051566f
:0301e700004e3b8c
:0301e800004b20a9
:0301e900004804c7
:0301ea000044e8e6
:0301eb000041ca06
:0301ec00003eac26
:0301ed00003b8e46
:0301ee0000386f67
:0301ef0000354f89
:0301f00000322fab
:0301f100002f0fcd
:0301f200002beef1
:0301f3000028cc15
:0301f4000025aa39
:0301f5000022885d
:0301f600001f6582
:0301f700001c42a7
:0301f80000191fcc
:0301f9000015fcf2
:0301fa000012d818
:0301fb00000fb53d
:0301fc00000c9163
:0301fd0000096d89
:0301fe00000648b0
:0301ff00000324d6
:00000001FF
