:03000000000000fd
:0300010003f9b848
:0300020003f36f96
:0300030003ed28e2
:0300040003e6e12f
:0300050003e09b7a
:0300060003da56c4
:0300070003d4120d
:0300080003cdd154
:0300090003c79199
:03000a0003c154db
:03000b0003bb181c
:03000c0003b4e05a
:03000d0003aeaa95
:03000e0003a878cc
:03000f0003a24900
:03001000039c1d31
:030011000395f65e
:03001200038fd287
:030013000389b3ab
:03001400038398cb
:03001500037d83e5
:03001600037772fb
:030017000371660c
:03001800036b6017
:030019000365601c
:03001a00035f651c
:03001b0003597115
:03001c0003538407
:03001d00034d9cf4
:03001e000347bcd9
:03001f000341e3b7
:03002000033c118d
:030021000336475c
:0300220003308523
:03002300032acae3
:0300240003251899
:03002500031f6e48
:030026000319cdee
:030027000314358a
:03002800030ea61e
:03002900030920a8
:03002a000303a32a
:03002b0002fe31a1
:03002c0002f8c80f
:03002d0002f36a71
:03002e0002ee15ca
:03002f0002e8cc18
:0300300002e38d5b
:0300310002de5993
:0300320002d930c0
:0300330002d413e1
:0300340002cf01f7
:0300350002c9fb02
:0300360002c501ff
:0300370002c013f1
:0300380002bb31d7
:0300390002b65cb0
:03003a0002b1947c
:03003b0002acd93b
:03003c0002a82aed
:03003d0002a38992
:03003e00029ef52a
:03003f00029a6fb3
:030040000295f72f
:0300410002918c9d
:03004200028d30fc
:030043000288e24e
:030044000284a390
:03004500028072c4
:03004600027c50e9
:0300470002783dff
:0300480002743906
:03004900027044fe
:03004a00026c5fe6
:03004b00026889bf
:03004c000264c388
:03004d0002610d40
:03004e00025d66ea
:03004f000259d083
:0300500002564a0b
:030051000252d583
:03005200024f70ea
:03005300024c1c40
:030054000248d986
:030055000245a6bb
:03005600024285de
:03005700023f75f0
:03005800023c76f1
:03005900023988e1
:03005a000236acbf
:03005b000233e28b
:03005c0002312945
:03005d00022e82ee
:03005e00022bee84
:03005f0002296b08
:030060000226fa7b
:0300610002249cda
:0300620002225027
:0300630002201662
:03006400021def8b
:03006500021bdaa1
:030066000219d8a4
:030067000217e994
:0300680002160d70
:030069000214433b
:03006a0002128df2
:03006b000210e997
:03006c00020f5927
:03006d00020ddca5
:03006e00020c720f
:03006f00020b1b66
:030070000209d7ab
:030071000208a7db
:0300720002078bf7
:0300730002068101
:0300740002058cf6
:030075000204a9d9
:030076000203dba7
:0300770002032061
:0300780002027809
:030079000201e49d
:03007a000201641c
:03007b000200f888
:03007c0002009fe0
:03007d0002005a24
:03007e0002002855
:03007f0002000b71
:030080000000007d
:00000001FF
