:03000000000000fd
:030001000004b642
:0300020000096d85
:03000300000e23c9
:030004000012d80f
:0300050000178e53
:03000600001c4299
:030007000020f7df
:030008000025aa26
:03000900002a5d6d
:03000a00002f0fb5
:03000b000033bf00
:03000c0000386f4a
:03000d00003d1d96
:03000e000041cae4
:03000f0000467632
:03001000004b2082
:03001100004fc9d4
:0300120000546f28
:030013000059147d
:03001400005db7d5
:030015000062582e
:030016000066f78a
:03001700006b94e7
:0300180000702e47
:030019000074c6aa
:03001a0000795b0f
:03001b00007dee77
:03001c0000827de2
:03001d0000870b4e
:03001e00008b95bf
:03001f0000901c32
:030020000094a0a9
:0300210000992122
:03002200009d9ea0
:0300230000a21820
:0300240000a68fa4
:0300250000ab022b
:0300260000af71b7
:0300270000b3dc47
:0300280000b844d9
:0300290000bca771
:03002a0000c1070b
:03002b0000c562ab
:03002c0000c9b94f
:03002d0000ce0cf6
:03002e0000d25aa3
:03002f0000d6a355
:0300300000dae80b
:0300310000df28c5
:0300320000e36484
:0300330000e79a49
:0300340000ebcb13
:0300350000eff8e1
:0300360000f41fb4
:0300370000f8408e
:0300380000fc5d6c
:030039000100744f
:03003a0001048539
:03003b0001089128
:03003c00010c961e
:03003d0001109718
:03003e0001149119
:03003f0001188520
:03004000011c732d
:0300410001205b40
:0300420001243d59
:0300430001281879
:03004400012beda0
:03004500012fbccc
:0300460001338300
:0300470001374539
:03004800013aff7b
:03004900013eb3c2
:03004a0001425f11
:03004b0001460566
:03004c000149a4c3
:03004d00014d3b27
:03004e000150cb93
:03004f0001545405
:030050000157d67f
:03005100015b5000
:03005200015ec389
:0300530001622e19
:03005400016591b2
:030055000168ec53
:03005600016c40fa
:03005700016f8caa
:030058000172d062
:0300590001760c21
:03005a0001793fea
:03005b00017c6bba
:03005c00017f8e93
:03005d000182a974
:03005e000185bc5d
:03005f000188c64f
:03006000018bc74a
:03006100018ec04d
:030062000191b158
:030063000194986d
:030064000197778a
:03006500019a4db0
:03006600019d1adf
:03006700019fde18
:0300680001a29a58
:0300690001a54ca2
:03006a0001a7f5f6
:03006b0001aa9453
:03006c0001ad2bb8
:03006d0001afb828
:03006e0001b23ca0
:03006f0001b4b623
:0300700001b727ae
:0300710001b98f43
:0300720001bbede2
:0300730001be418a
:0300740001c08b3d
:0300750001c2ccf9
:0300760001c503be
:0300770001c7308e
:0300780001c95467
:0300790001cb6d4b
:03007a0001cd7d38
:03007b0001cf8230
:03007c0001d17e31
:03007d0001d36f3d
:03007e0001d55653
:03007f0001d73373
:0300800001d9069d
:0300810001daced3
:0300820001dc8d11
:0300830001de405b
:0300840001dfeaaf
:0300850001e1890d
:0300860001e31e75
:0300870001e4a8e9
:0300880001e62866
:0300890001e79def
:03008a0001e90782
:03008b0001ea6720
:03008c0001ebbdc8
:03008d0001ed077b
:03008e0001ee4739
:03008f0001ef7c02
:0300900001f0a7d5
:0300910001f1c7b3
:0300920001f2dc9c
:0300930001f3e690
:0300940001f4e58f
:0300950001f5d999
:0300960001f6c3ad
:0300970001f7a2cc
:0300980001f875f7
:0300990001f93e2c
:03009a0001f9fc6d
:03009b0001faafb8
:03009c0001fb570e
:03009d0001fbf371
:03009e0001fc85dd
:03009f0001fd0c54
:0300a00001fd88d7
:0300a10001fdf965
:0300a20001fe5efe
:0300a30001feb9a2
:0300a40001ff0851
:0300a50001ff4d0b
:0300a60001ff86d1
:0300a70001ffb4a2
:0300a80001ffd87d
:0300a90001fff064
:0300aa0001fffd56
:0300ab0001fffe54
:0300ac0001fff55c
:0300ad0001ffe16f
:0300ae0001ffc18e
:0300af0001ff97b7
:0300b00001ff61ec
:0300b10001ff202c
:0300b20001fed577
:0300b30001fe7ecd
:0300b40001fe1c2e
:0300b50001fdaf9b
:0300b60001fd3712
:0300b70001fcb396
:0300b80001fc2523
:0300b90001fb8cbc
:0300ba0001fae860
:0300bb0001fa390e
:0300bc0001f97fc8
:0300bd0001f8b98e
:0300be0001f7e95e
:0300bf0001f70e38
:0300c00001f6291d
:0300c10001f5380e
:0300c20001f43c0a
:0300c30001f33610
:0300c40001f22422
:0300c50001f1083e
:0300c60001efe166
:0300c70001eeaf98
:0300c80001ed73d4
:0300c90001ec2c1b
:0300ca0001eada6e
:0300cb0001e97eca
:0300cc0001e81731
:0300cd0001e6a5a4
:0300ce0001e52920
:0300cf0001e3a2a8
:0300d00001e21139
:0300d10001e075d6
:0300d20001decf7d
:0300d30001dd1f2d
:0300d40001db64e9
:0300d50001d99faf
:0300d60001d7d07f
:0300d70001d5f65a
:0300d80001d4123e
:0300d90001d2242d
:0300da0001d02c26
:0300db0001ce2a29
:0300dc0001cc1e36
:0300dd0001ca084d
:0300de0001c7e86f
:0300df0001c5be9a
:0300e00001c38acf
:0300e10001c14d0d
:0300e20001bf0556
:0300e30001bcb4a9
:0300e40001ba5a04
:0300e50001b7f66a
:0300e60001b588d9
:0300e70001b31151
:0300e80001b090d4
:0300e90001ae065f
:0300ea0001ab72f5
:0300eb0001a8d693
:0300ec0001a6303a
:0300ed0001a381eb
:0300ee0001a0c9a5
:0300ef00019e0768
:0300f000019b3d34
:0300f10001986a09
:0300f20001958ee7
:0300f3000192a9ce
:0300f400018fbcbd
:0300f500018cc6b5
:0300f6000189c7b6
:0300f7000186c0bf
:0300f8000183b0d1
:0300f900018098eb
:0300fa00017d770e
:0300fb00017a4f38
:0300fc0001771e6b
:0300fd000173e5a7
:0300fe000170a3eb
:0300ff00016d5a36
:03010000016a0988
:030101000166b0e4
:0301020001635046
:03010300015fe7b2
:03010400015c7724
:030105000158ff9f
:0301060001558020
:030107000151faa9
:03010800014e6c39
:03010900014ad7d1
:03010a0001473b6f
:03010b0001439716
:03010c00013fedc3
:03010d00013c3c76
:03010e0001388332
:03010f000134c5f3
:030110000130ffbc
:03011100012d338a
:0301120001296060
:030113000125873c
:030114000121a71f
:03011500011dc108
:030116000119d5f7
:030117000115e3ec
:030118000111ebe7
:03011900010dede8
:03011a000109e9ef
:03011b000105dffc
:03011c000101cf0f
:03011d0000fdba28
:03011e0000f9a045
:03011f0000f58068
:0301200000f15a91
:0301210000ed30be
:0301220000e900f1
:0301230000e4cc29
:0301240000e09266
:0301250000dc53a8
:0301260000d810ee
:0301270000d3c83a
:0301280000cf7b8a
:0301290000cb2ade
:03012a0000c6d537
:03012b0000c27b94
:03012c0000be1df5
:03012d0000b9bb5b
:03012e0000b555c4
:03012f0000b0ea33
:0301300000ac7ca4
:0301310000a80b18
:0301320000a39592
:03013300009f1d0d
:03013400009aa08e
:0301350000962110
:0301360000919e97
:03013700008d1721
:0301380000888eae
:030139000084023d
:03013a00007f73d0
:03013b00007ae166
:03013c0000764dfd
:03013d000071b698
:03013e00006d1d34
:03013f00006881d4
:030140000063e376
:03014100005f421a
:03014200005aa0c0
:030143000055fc68
:0301440000515611
:03014500004caebd
:030146000048046a
:0301470000435919
:03014800003eacca
:030149000039ff7b
:03014a0000354f2e
:03014b0000309fe2
:03014c00002bee97
:03014d0000273b4d
:03014e0000228804
:03014f00001dd4bc
:0301500000191f74
:0301510000146a2d
:03015200000fb5e6
:03015300000affa0
:030154000006485a
:0301550000019214
:0301560003fcdccb
:0301570003f82585
:0301580003f36f3f
:0301590003eebaf8
:03015a0003ea04b1
:03015b0003e54f6a
:03015c0003e09b22
:03015d0003dbe7da
:03015e0003d73490
:03015f0003d28246
:0301600003cdd1fb
:0301610003c921ae
:0301620003c47261
:0301630003bfc413
:0301640003bb18c2
:0301650003b66e70
:0301660003b1c51d
:0301670003ad1dc8
:0301680003a87871
:0301690003a3d419
:03016a00039f33bd
:03016b00039a9361
:03016c000395f602
:03016d0003915ba0
:03016e00038cc23d
:03016f0003882cd6
:030170000383986e
:03017100037f0801
:03017200037a7994
:030173000375ee23
:03017400037166ae
:03017500036ce137
:0301760003685fbc
:030177000363e13e
:03017800035f65bd
:03017900035aee38
:03017a0003567aaf
:03017b0003520923
:03017c00034d9c94
:03017d00034934ff
:03017e000344cf68
:03017f0003406ecc
:03018000033c112c
:030181000337b988
:03018200033365df
:03018300032f1532
:03018400032aca81
:03018500032684ca
:030186000322420f
:03018700031e054f
:030188000319cd8b
:0301890003159ac1
:03018a0003116cf2
:03018b00030d431e
:03018c0003092044
:03018d0003050265
:03018e000300e982
:03018f0002fcd699
:0301900002f8c8aa
:0301910002f4c0b5
:0301920002f0beba
:0301930002ecc2b9
:0301940002e8ccb2
:0301950002e4dca5
:0301960002e0f292
:0301970002dd0e78
:0301980002d93059
:0301990002d55933
:03019a0002d18906
:03019b0002cdbed4
:03019c0002c9fb9a
:03019d0002c63e59
:03019e0002c28812
:03019f0002bed9c4
:0301a00002bb316e
:0301a10002b79012
:0301a20002b3f7ae
:0301a30002b06443
:0301a40002acd9d1
:0301a50002a95458
:0301a60002a5d8d7
:0301a70002a2634e
:0301a800029ef5bf
:0301a900029b8f27
:0301aa0002983187
:0301ab000294dbe0
:0301ac0002918c31
:0301ad00028e4679
:0301ae00028b07ba
:0301af000287d1f3
:0301b0000284a323
:0301b10002817d4b
:0301b200027e5f6b
:0301b300027b4a82
:0301b40002783d91
:0301b50002753898
:0301b60002723c96
:0301b700026f498b
:0301b800026c5f77
:0301b90002697d5b
:0301ba000266a436
:0301bb000263d408
:0301bc0002610dd0
:0301bd00025e4e91
:0301be00025b9948
:0301bf000258edf6
:0301c00002564a9a
:0301c1000253b135
:0301c200025121c6
:0301c300024e9a4f
:0301c400024c1cce
:0301c5000249a844
:0301c60002473db0
:0301c7000244dc13
:0301c8000242856b
:0301c900024037ba
:0301ca00023df300
:0301cb00023bb93b
:0301cc000239886d
:0301cd0002376294
:0301ce00023545b2
:0301cf00023332c6
:0301d000023129d0
:0301d100022f2ad0
:0301d200022d36c5
:0301d300022b4bb1
:0301d40002296b92
:0301d50002279569
:0301d6000225c936
:0301d700022407f8
:0301d800022250b0
:0301d9000220a35e
:0301da00021f0001
:0301db00021d689a
:0301dc00021bda29
:0301dd00021a57ac
:0301de000218de26
:0301df0002177094
:0301e00002160df7
:0301e1000214b451
:0301e2000213669f
:0301e300021222e3
:0301e4000210e91d
:0301e500020fbb4b
:0301e600020e986e
:0301e700020d7f87
:0301e800020c7294
:0301e900020b6f97
:0301ea00020a778f
:0301eb0002098a7c
:0301ec000208a75f
:0301ed000207d036
:0301ee0002070401
:0301ef00020642c3
:0301f00002058c79
:0301f1000204e025
:0301f200020440c4
:0301f3000203aa5a
:0301f400020320e3
:0301f5000202a063
:0301f60002022cd6
:0301f7000201c240
:0301f8000201649d
:0301f900020111ef
:0301fa000200c937
:0301fb0002008c73
:0301fc0002005aa4
:0301fd00020033ca
:0301fe00020017e5
:0301ff00020007f4
:00000001FF
