:0300000001fffffe
:0300010001fff507
:0300020001ffd823
:0300030001ffa654
:0300040001ff6198
:0300050001ff08f0
:0300060001fe9c5c
:0300070001fe1cdb
:0300080001fd886f
:0300090001fce017
:03000a0001fc25d1
:03000b0001fb579f
:03000c0001fa7482
:03000d0001f97f77
:03000e0001f87581
:03000f0001f7599d
:0300100001f629cd
:0300110001f4e512
:0300120001f38e69
:0300130001f224d3
:0300140001f0a751
:0300150001ef17e1
:0300160001ed7386
:0300170001ebbd3d
:0300180001e9f308
:0300190001e817e4
:03001a0001e628d4
:03001b0001e426d7
:03001c0001e211ed
:03001d0001dfea16
:03001e0001ddb051
:03001f0001db649e
:0300200001d906fd
:0300210001d69570
:0300220001d412f4
:0300230001d17e8a
:0300240001ced733
:0300250001cc1eed
:0300260001c954b9
:0300270001c67897
:0300280001c38a87
:0300290001c08b88
:03002a0001bd7b9a
:03002b0001ba5abd
:03002c0001b727f2
:03002d0001b3e438
:03002e0001b0908e
:03002f0001ad2bf5
:0300300001a9b66d
:0300310001a630f5
:0300320001a29a8e
:03003300019ef338
:03003400019b3df0
:03003500019777b9
:030036000193a192
:03003700018fbc7a
:03003800018bc772
:030039000187c379
:03003a000183b08f
:03003b00017f8eb4
:03003c00017b5de8
:03003d0001771e2a
:03003e000172d07c
:03003f00016e74db
:03004000016a0949
:03004100016591c5
:0300420001610b4e
:03004300015c77e6
:030044000157d68b
:030045000153273d
:03004600014e6cfc
:030047000149a4c8
:030048000144cfa1
:03004900013fed87
:03004a00013aff79
:03004b0001360576
:03004c000130ff81
:03004d00012bed97
:03004e000126d0b8
:03004f000121a7e5
:03005000011c731d
:0300510001173460
:030052000111ebae
:03005300010c9607
:0300540001073869
:030055000101cfd7
:0300560000fc5d4e
:0300570000f6e0d0
:0300580000f15a5a
:0300590000ebcbee
:03005a0000e6338a
:03005b0000e09230
:03005c0000dae8df
:03005d0000d53695
:03005e0000cf7b55
:03005f0000c9b91c
:0300600000c3efeb
:0300610000be1dc1
:0300620000b8449f
:0300630000b26484
:0300640000ac7c71
:0300650000a68f63
:0300660000a09b5c
:03006700009aa05c
:030068000094a061
:03006900008e9a6c
:03006a0000888e7d
:03006b0000827d93
:03006c00007c68ad
:03006d0000764dcd
:03006e0000702ef1
:03006f00006a0a1a
:030070000063e347
:03007100005db778
:03007200005788ac
:03007300005156e3
:03007400004b201e
:030075000044e85c
:03007600003eac9d
:0300770000386fdf
:0300780000322f24
:03007900002bee6b
:03007a000025aab4
:03007b00001f65fe
:03007c0000191f49
:03007d000012d896
:03007e00000c91e2
:03007f0000064830
:030080000000007d
:00000001FF
