:0300000001fffffe
:0300010001fffefe
:0300020001fffdfe
:0300030001fff901
:0300040001fff504
:0300050001fff008
:0300060001ffe90e
:0300070001ffe115
:0300080001ffd81d
:0300090001ffcd27
:03000a0001ffc132
:03000b0001ffb43e
:03000c0001ffa64b
:03000d0001ff9759
:03000e0001ff8669
:03000f0001ff747a
:0300100001ff618c
:0300110001ff4d9f
:0300120001ff37b4
:0300130001ff20ca
:0300140001ff08e1
:0300150001feeffa
:0300160001fed513
:0300170001feb92e
:0300180001fe9c4a
:0300190001fe7e67
:03001a0001fe5e86
:03001b0001fe3ea5
:03001c0001fe1cc6
:03001d0001fdf9e9
:03001e0001fdd40d
:03001f0001fdaf31
:0300200001fd8857
:0300210001fd607e
:0300220001fd37a6
:0300230001fd0cd0
:0300240001fce0fc
:0300250001fcb328
:0300260001fc8555
:0300270001fc5683
:0300280001fc25b3
:0300290001fbf3e5
:03002a0001fbc017
:03002b0001fb8c4a
:03002c0001fb577e
:03002d0001fb20b4
:03002e0001fae8ec
:03002f0001faaf24
:0300300001fa745e
:0300310001fa3998
:0300320001f9fcd5
:0300330001f9be12
:0300340001f97f50
:0300350001f93e90
:0300360001f8fcd2
:0300370001f8b914
:0300380001f87557
:0300390001f8309b
:03003a0001f7e9e2
:03003b0001f7a228
:03003c0001f75970
:03003d0001f70eba
:03003e0001f6c305
:03003f0001f67651
:0300400001f6299d
:0300410001f5d9ed
:0300420001f5893c
:0300430001f5388c
:0300440001f4e5df
:0300450001f49132
:0300460001f43c86
:0300470001f3e6dc
:0300480001f38e33
:0300490001f3368a
:03004a0001f2dce4
:03004b0001f2813e
:03004c0001f2249a
:03004d0001f1c7f7
:03004e0001f16855
:03004f0001f108b4
:0300500001f0a715
:0300510001f04576
:0300520001efe1da
:0300530001ef7c3e
:0300540001ef17a2
:0300550001eeaf0a
:0300560001ee4771
:0300570001eddeda
:0300580001ed7344
:0300590001ed07af
:03005a0001ec9a1c
:03005b0001ec2c89
:03005c0001ebbdf8
:03005d0001eb4c68
:03005e0001eadada
:03005f0001ea674c
:0300600001e9f3c0
:0300610001e97e34
:0300620001e907aa
:0300630001e89021
:0300640001e81799
:0300650001e79d13
:0300660001e7228d
:0300670001e6a50a
:0300680001e62886
:0300690001e5a905
:03006a0001e52984
:03006b0001e4a805
:03006c0001e42686
:03006d0001e3a20a
:03006e0001e31e8d
:03006f0001e29813
:0300700001e21199
:0300710001e18921
:0300720001e100a9
:0300730001e07534
:0300740001dfeabf
:0300750001df5d4b
:0300760001decfd9
:0300770001de4067
:0300780001ddb0f7
:0300790001dd1f87
:03007a0001dc8d19
:03007b0001dbf9ad
:03007c0001db6441
:03007d0001daced7
:03007e0001da376d
:03007f0001d99f05
:0300800001d9069d
:0300810001d86b38
:0300820001d7d0d3
:0300830001d7336f
:0300840001d6950d
:0300850001d5f6ac
:0300860001d5564b
:0300870001d4b5ec
:0300880001d4128e
:0300890001d36f31
:03008a0001d2cad6
:03008b0001d2247b
:03008c0001d17e21
:03008d0001d0d6c9
:03008e0001d02c72
:03008f0001cf821c
:0300900001ced7c7
:0300910001ce2a73
:0300920001cd7d20
:0300930001cccecf
:0300940001cc1e7e
:0300950001cb6d2f
:0300960001cabbe1
:0300970001ca0893
:0300980001c95447
:0300990001c89efd
:03009a0001c7e8b3
:03009b0001c7306a
:03009c0001c67822
:03009d0001c5bedc
:03009e0001c50396
:03009f0001c44752
:0300a00001c38a0f
:0300a10001c2cccd
:0300a20001c20d8b
:0300a30001c14d4b
:0300a40001c08b0d
:0300a50001bfc9cf
:0300a60001bf0592
:0300a70001be4156
:0300a80001bd7b1c
:0300a90001bcb4e3
:0300aa0001bbedaa
:0300ab0001bb2472
:0300ac0001ba5a3c
:0300ad0001b98f07
:0300ae0001b8c3d3
:0300af0001b7f6a0
:0300b00001b7276e
:0300b10001b6583d
:0300b20001b5880d
:0300b30001b4b6df
:0300b40001b3e4b1
:0300b50001b31183
:0300b60001b23c58
:0300b70001b1662e
:0300b80001b09004
:0300b90001afb8dc
:0300ba0001aedfb5
:0300bb0001ae068d
:0300bc0001ad2b68
:0300bd0001ac4f44
:0300be0001ab7221
:0300bf0001aa94ff
:0300c00001a9b6dd
:0300c10001a8d6bd
:0300c20001a7f59e
:0300c30001a7137f
:0300c40001a63062
:0300c50001a54c46
:0300c60001a4672b
:0300c70001a38111
:0300c80001a29af8
:0300c90001a1b2e0
:0300ca0001a0c9c9
:0300cb00019fdeb4
:0300cc00019ef39f
:0300cd00019e078a
:0300ce00019d1a77
:0300cf00019c2c65
:0300d000019b3d54
:0300d100019a4d44
:0300d20001995c35
:0300d30001986a27
:0300d4000197771a
:0300d5000196830e
:0300d60001958e03
:0300d700019498f9
:0300d8000193a1f0
:0300d9000192a9e8
:0300da000191b1e0
:0300db000190b7da
:0300dc00018fbcd5
:0300dd00018ec0d1
:0300de00018dc4cd
:0300df00018cc6cb
:0300e000018bc7ca
:0300e100018ac8c9
:0300e2000189c7ca
:0300e3000188c6cb
:0300e4000187c3ce
:0300e5000186c0d1
:0300e6000185bcd5
:0300e7000184b6db
:0300e8000183b0e1
:0300e9000182a9e8
:0300ea000181a1f0
:0300eb00018098f9
:0300ec00017f8e03
:0300ed00017e830e
:0300ee00017d771a
:0300ef00017c6b26
:0300f000017b5d34
:0300f100017a4f42
:0300f20001793f52
:0300f30001782f62
:0300f40001771e73
:0300f50001760c85
:0300f6000174f999
:0300f7000173e5ad
:0300f8000172d0c2
:0300f9000171bad8
:0300fa000170a3ef
:0300fb00016f8c06
:0300fc00016e741e
:0300fd00016d5a38
:0300fe00016c4052
:0300ff00016b256d
:03010000016a0988
:030101000168eca6
:030102000167cfc3
:030103000166b0e2
:0301040001659101
:0301050001647121
:0301060001635042
:0301070001622e64
:0301080001610b87
:03010900015fe7ac
:03010a00015ec3d0
:03010b00015d9df6
:03010c00015c771c
:03010d00015b5043
:03010e00015a286b
:03010f000158ff95
:030110000157d6be
:030111000156ace8
:0301120001558014
:0301130001545440
:030114000153276d
:030115000151fa9b
:030116000150cbca
:03011700014f9cf9
:03011800014e6c29
:03011900014d3b5a
:03011a00014c098c
:03011b00014ad7bf
:03011c000149a4f2
:03011d0001487026
:03011e0001473b5b
:03011f0001460591
:030120000144cfc8
:0301210001439700
:0301220001425f38
:0301230001412770
:03012400013fedab
:03012500013eb3e5
:03012600013d7820
:03012700013c3c5c
:03012800013aff9a
:030129000139c2d7
:03012a0001388316
:03012b0001374554
:03012c0001360594
:03012d000134c5d5
:03012e0001338317
:03012f0001324258
:030130000130ff9c
:03013100012fbcdf
:03013200012e7724
:03013300012d3368
:03013400012bedaf
:03013500012aa7f5
:030136000129603c
:0301370001281884
:030138000126d0cd
:0301390001258716
:03013a0001243d60
:03013b000122f2ac
:03013c000121a7f7
:03013d0001205b43
:03013e00011f0e90
:03013f00011dc1de
:03014000011c732c
:03014100011b247b
:030142000119d5cb
:030143000118851b
:030144000117346c
:030145000115e3be
:0301460001149110
:0301470001133e63
:030148000111ebb7
:030149000110970b
:03014a00010f4260
:03014b00010dedb6
:03014c00010c960d
:03014d00010b4063
:03014e000109e9bb
:03014f0001089113
:030150000107386c
:030151000105dfc6
:0301520001048520
:0301530001032a7b
:030154000101cfd7
:0301550001007432
:0301560000ff1790
:0301570000fdbaee
:0301580000fc5d4b
:0301590000fafeab
:03015a0000f9a009
:03015b0000f84069
:03015c0000f6e0ca
:03015d0000f5802a
:03015e0000f41f8b
:03015f0000f2bdee
:0301600000f15a51
:0301610000eff8b4
:0301620000ee9418
:0301630000ed307c
:0301640000ebcbe2
:0301650000ea6647
:0301660000e900ad
:0301670000e79a14
:0301680000e6337b
:0301690000e4cce3
:03016a0000e3644b
:03016b0000e1fbb5
:03016c0000e0921e
:03016d0000df2888
:03016e0000ddbef3
:03016f0000dc535e
:0301700000dae8ca
:0301710000d97c36
:0301720000d810a2
:0301730000d6a310
:0301740000d5367d
:0301750000d3c8ec
:0301760000d25a5a
:0301770000d0ebca
:0301780000cf7b3a
:0301790000ce0ca9
:03017a0000cc9b1b
:03017b0000cb2a8c
:03017c0000c9b9fe
:03017d0000c84770
:03017e0000c6d5e3
:03017f0000c56256
:0301800000c3efca
:0301810000c27b3e
:0301820000c107b2
:0301830000bf9228
:0301840000be1d9d
:0301850000bca714
:0301860000bb318a
:0301870000b9bb01
:0301880000b84478
:0301890000b6ccf1
:03018a0000b55568
:03018b0000b3dce2
:03018c0000b2645a
:03018d0000b0ead5
:03018e0000af714e
:03018f0000adf7c9
:0301900000ac7c44
:0301910000ab02be
:0301920000a9863b
:0301930000a80bb6
:0301940000a68f33
:0301950000a512b0
:0301960000a3952e
:0301970000a218ab
:0301980000a09b29
:03019900009f1da7
:03019a00009d9e27
:03019b00009c1fa6
:03019c00009aa026
:03019d00009921a5
:03019e000097a126
:03019f00009621a6
:0301a0000094a028
:0301a10000931fa9
:0301a20000919e2b
:0301a30000901cad
:0301a400008e9a30
:0301a500008d17b3
:0301a600008b9536
:0301a700008a12b9
:0301a80000888e3e
:0301a90000870bc1
:0301aa0000858746
:0301ab00008402cb
:0301ac0000827d51
:0301ad000080f8d7
:0301ae00007f735c
:0301af00007deee2
:0301b000007c6868
:0301b100007ae1f0
:0301b20000795b76
:0301b3000077d4fe
:0301b40000764d85
:0301b5000074c60d
:0301b60000733e95
:0301b7000071b61e
:0301b80000702ea6
:0301b900006ea530
:0301ba00006d1db8
:0301bb00006b9442
:0301bc00006a0acc
:0301bd0000688156
:0301be000066f7e1
:0301bf0000656d6b
:0301c0000063e3f6
:0301c10000625881
:0301c2000060cd0d
:0301c300005f4298
:0301c400005db724
:0301c500005c2caf
:0301c600005aa03c
:0301c700005914c8
:0301c80000578855
:0301c9000055fce2
:0301ca0000546f6f
:0301cb000052e3fc
:0301cc0000515689
:0301cd00004fc917
:0301ce00004e3ba5
:0301cf00004cae33
:0301d000004b20c1
:0301d10000499250
:0301d200004804de
:0301d3000046766d
:0301d4000044e8fc
:0301d5000043598b
:0301d6000041ca1b
:0301d70000403ca9
:0301d800003eac3a
:0301d900003d1dc9
:0301da00003b8e59
:0301db000039ffe9
:0301dc0000386f79
:0301dd000036df0a
:0301de0000354f9a
:0301df000033bf2b
:0301e00000322fbb
:0301e10000309f4c
:0301e200002f0fdc
:0301e300002d7e6e
:0301e400002beeff
:0301e500002a5d90
:0301e6000028cc22
:0301e70000273bb3
:0301e8000025aa45
:0301e900002419d6
:0301ea0000228868
:0301eb000020f7fa
:0301ec00001f658c
:0301ed00001dd41e
:0301ee00001c42b0
:0301ef00001ab142
:0301f00000191fd4
:0301f10000178e66
:0301f2000015fcf9
:0301f30000146a8b
:0301f4000012d81e
:0301f500001146b0
:0301f600000fb542
:0301f700000e23d4
:0301f800000c9167
:0301f900000afffa
:0301fa0000096d8c
:0301fb000007db1f
:0301fc00000648b2
:0301fd000004b645
:0301fe00000324d7
:0301ff000001926a
:03020000000000fb
:00000001FF
