:0300000001fffffe
:0300010001fffdff
:0300020001fff506
:0300030001ffe911
:0300040001ffd821
:0300050001ffc137
:0300060001ffa651
:0300070001ff8670
:0300080001ff6194
:0300090001ff37bd
:03000a0001ff08eb
:03000b0001fed51e
:03000c0001fe9c56
:03000d0001fe5e93
:03000e0001fe1cd4
:03000f0001fdd41c
:0300100001fd8867
:0300110001fd37b7
:0300120001fce00e
:0300130001fc8568
:0300140001fc25c7
:0300150001fbc02c
:0300160001fb5794
:0300170001fae803
:0300180001fa7476
:0300190001f9fcee
:03001a0001f97f6a
:03001b0001f8fced
:03001c0001f87573
:03001d0001f7e9ff
:03001e0001f7598e
:03001f0001f6c324
:0300200001f629bd
:0300210001f5895d
:0300220001f4e501
:0300230001f43ca9
:0300240001f38e57
:0300250001f2dc09
:0300260001f224c0
:0300270001f1687c
:0300280001f0a73d
:0300290001efe103
:03002a0001ef17cc
:03002b0001ee479c
:03002c0001ed7370
:03002d0001ec9a49
:03002e0001ebbd26
:03002f0001eada09
:0300300001e9f3f0
:0300310001e907db
:0300320001e817cb
:0300330001e722c0
:0300340001e628ba
:0300350001e529b9
:0300360001e426bc
:0300370001e31ec4
:0300380001e211d1
:0300390001e100e2
:03003a0001dfeaf9
:03003b0001decf14
:03003c0001ddb033
:03003d0001dc8d56
:03003e0001db647f
:03003f0001da37ac
:0300400001d906dd
:0300410001d7d014
:0300420001d6954f
:0300430001d5568e
:0300440001d412d2
:0300450001d2ca1b
:0300460001d17e67
:0300470001d02cb9
:0300480001ced70f
:0300490001cd7d69
:03004a0001cc1ec8
:03004b0001cabb2c
:03004c0001c95493
:03004d0001c7e800
:03004e0001c67870
:03004f0001c503e5
:0300500001c38a5f
:0300510001c20ddc
:0300520001c08b5f
:0300530001bf05e5
:0300540001bd7b70
:0300550001bbedff
:0300560001ba5a92
:0300570001b8c32a
:0300580001b727c6
:0300590001b58866
:03005a0001b3e40b
:03005b0001b23cb3
:03005c0001b09060
:03005d0001aedf12
:03005e0001ad2bc6
:03005f0001ab7280
:0300600001a9b63d
:0300610001a7f5ff
:0300620001a630c4
:0300630001a4678e
:0300640001a29a5c
:0300650001a0c92e
:03006600019ef305
:03006700019d1ade
:03006800019b3dbc
:0300690001995c9e
:03006a0001977784
:03006b0001958e6e
:03006c000193a15c
:03006d000191b14d
:03006e00018fbc43
:03006f00018dc43c
:03007000018bc73a
:030071000189c73b
:030072000187c340
:030073000185bc48
:030074000183b055
:030075000181a165
:03007600017f8e79
:03007700017d7791
:03007800017b5dac
:0300790001793fcb
:03007a0001771eed
:03007b000174f914
:03007c000172d03e
:03007d000170a36c
:03007e00016e749c
:03007f00016c40d1
:03008000016a0909
:030081000167cf45
:0300820001659184
:03008300016350c6
:0300840001610b0c
:03008500015ec356
:03008600015c77a3
:03008700015a28f3
:030088000157d647
:030089000155809e
:03008a00015327f8
:03008b000150cb56
:03008c00014e6cb6
:03008d00014c091a
:03008e000149a481
:03008f0001473beb
:030090000144cf59
:0300910001425fca
:03009200013fed3e
:03009300013d78b4
:03009400013aff2f
:03009500013883ac
:030096000136052b
:03009700013383af
:030098000130ff35
:03009900012e77be
:03009a00012bed4a
:03009b00012960d8
:03009c000126d06a
:03009d0001243dfe
:03009e000121a796
:03009f00011f0e30
:0300a000011c73cd
:0300a1000119d56d
:0300a2000117340f
:0300a300011491b4
:0300a4000111eb5c
:0300a500010f4206
:0300a600010c96b4
:0300a7000109e963
:0300a80001073815
:0300a900010485ca
:0300aa000101cf82
:0300ab0000ff173c
:0300ac0000fc5df8
:0300ad0000f9a0b7
:0300ae0000f6e079
:0300af0000f41f3b
:0300b00000f15a02
:0300b10000ee94ca
:0300b20000ebcb95
:0300b30000e90061
:0300b40000e63330
:0300b50000e36401
:0300b60000e092d5
:0300b70000ddbeab
:0300b80000dae883
:0300b90000d8105c
:0300ba0000d53638
:0300bb0000d25a16
:0300bc0000cf7bf7
:0300bd0000cc9bd9
:0300be0000c9b9bd
:0300bf0000c6d5a3
:0300c00000c3ef8b
:0300c10000c10774
:0300c20000be1d60
:0300c30000bb314e
:0300c40000b8443d
:0300c50000b5552e
:0300c60000b26421
:0300c70000af7116
:0300c80000ac7c0d
:0300c90000a98605
:0300ca0000a68ffe
:0300cb0000a395fa
:0300cc0000a09bf6
:0300cd00009d9ef5
:0300ce00009aa0f5
:0300cf000097a1f6
:0300d0000094a0f9
:0300d10000919efd
:0300d200008e9a03
:0300d300008b950a
:0300d40000888e13
:0300d5000085871c
:0300d60000827d28
:0300d700007f7334
:0300d800007c6841
:0300d90000795b50
:0300da0000764d60
:0300db0000733e71
:0300dc0000702e83
:0300dd00006d1d96
:0300de00006a0aab
:0300df000066f7c1
:0300e0000063e3d7
:0300e1000060cdef
:0300e200005db707
:0300e300005aa020
:0300e4000057883a
:0300e50000546f55
:0300e60000515670
:0300e700004e3b8d
:0300e800004b20aa
:0300e900004804c8
:0300ea000044e8e7
:0300eb000041ca07
:0300ec00003eac27
:0300ed00003b8e47
:0300ee0000386f68
:0300ef0000354f8a
:0300f00000322fac
:0300f100002f0fce
:0300f200002beef2
:0300f3000028cc16
:0300f4000025aa3a
:0300f5000022885e
:0300f600001f6583
:0300f700001c42a8
:0300f80000191fcd
:0300f9000015fcf3
:0300fa000012d819
:0300fb00000fb53e
:0300fc00000c9164
:0300fd0000096d8a
:0300fe00000648b1
:0300ff00000324d7
:03010000000000fc
:0301010003fcdc20
:0301020003f9b846
:0301030003f6936d
:0301040003f36f93
:0301050003f04bb9
:0301060003ed28de
:0301070003ea0404
:0301080003e6e12a
:0301090003e3be4f
:03010a0003e09b74
:03010b0003dd7899
:03010c0003da56bd
:03010d0003d734e1
:03010e0003d41205
:03010f0003d0f129
:0301100003cdd14b
:0301110003cab16d
:0301120003c7918f
:0301130003c472b0
:0301140003c154d0
:0301150003be36f0
:0301160003bb1810
:0301170003b7fc2f
:0301180003b4e04d
:0301190003b1c56a
:03011a0003aeaa87
:03011b0003ab91a2
:03011c0003a878bd
:03011d0003a560d7
:03011e0003a249f0
:03011f00039f3308
:03012000039c1d20
:0301210003990936
:030122000395f64c
:030123000392e361
:03012400038fd274
:03012500038cc286
:030126000389b397
:030127000386a5a7
:03012800038398b6
:0301290003808dc3
:03012a00037d83cf
:03012b00037a79db
:03012c00037772e4
:03012d0003746bed
:03012e00037166f4
:03012f00036e62fa
:03013000036b60fe
:0301310003685f01
:0301320003656002
:0301330003626202
:03013400035f6501
:03013500035c6bfd
:03013600035971f9
:0301370003567af2
:03013800035384ea
:0301390003508fe1
:03013a00034d9cd6
:03013b00034aabc9
:03013c000347bcba
:03013d000344cfa9
:03013e000341e397
:03013f00033ef983
:03014000033c116c
:0301410003392b54
:030142000336473a
:030143000333651e
:0301440003308500
:03014500032da6e1
:03014600032acabf
:030147000327f09b
:0301480003251874
:030149000322424c
:03014a00031f6e22
:03014b00031c9cf6
:03014c000319cdc7
:03014d0003170095
:03014e0003143562
:03014f0003116c2d
:03015000030ea6f5
:03015100030be1bc
:030152000309207e
:0301530003066040
:030154000303a3ff
:030155000300e9bb
:0301560002fe3175
:0301570002fb7b2d
:0301580002f8c8e2
:0301590002f61794
:03015a0002f36a43
:03015b0002f0bef1
:03015c0002ee159b
:03015d0002eb6f43
:03015e0002e8cce8
:03015f0002e62b8a
:0301600002e38d2a
:0301610002e0f2c7
:0301620002de5961
:0301630002dbc3f9
:0301640002d9308d
:0301650002d6a01f
:0301660002d413ad
:0301670002d18939
:0301680002cf01c2
:0301690002cc7d48
:03016a0002c9fbcc
:03016b0002c77d4b
:03016c0002c501c8
:03016d0002c28843
:03016e0002c013b9
:03016f0002bda12d
:0301700002bb319e
:0301710002b8c50c
:0301720002b65c76
:0301730002b3f7dd
:0301740002b19441
:0301750002af35a1
:0301760002acd9ff
:0301770002aa8059
:0301780002a82ab0
:0301790002a5d804
:03017a0002a38954
:03017b0002a13da1
:03017c00029ef5eb
:03017d00029cb031
:03017e00029a6f73
:03017f00029831b2
:030180000295f7ee
:030181000293c026
:0301820002918c5b
:03018300028f5d8b
:03018400028d30b9
:03018500028b07e3
:030186000288e20a
:030187000286c12c
:030188000284a34b
:0301890002828966
:03018a000280727e
:03018b00027e5f92
:03018c00027c50a2
:03018d00027a44af
:03018e0002783db7
:03018f00027639bc
:03019000027439bd
:0301910002723cbb
:03019200027044b4
:03019300026e4faa
:03019400026c5f9b
:03019500026a7289
:0301960002688973
:030197000266a459
:030198000264c33b
:030199000262e619
:03019a0002610df2
:03019b00025f37c9
:03019c00025d669b
:03019d00025b9969
:03019e000259d033
:03019f0002580bf8
:0301a00002564aba
:0301a10002548e77
:0301a2000252d531
:0301a300025121e5
:0301a400024f7097
:0301a500024dc444
:0301a600024c1cec
:0301a700024a7891
:0301a8000248d931
:0301a90002473dcd
:0301aa000245a665
:0301ab00024413f8
:0301ac0002428587
:0301ad000240fb12
:0301ae00023f7598
:0301af00023df31b
:0301b000023c7698
:0301b100023afd12
:0301b20002398887
:0301b300023818f7
:0301b4000236ac64
:0301b500023545cb
:0301b6000233e22f
:0301b7000232838e
:0301b800023129e8
:0301b900022fd43e
:0301ba00022e8290
:0301bb00022d36dc
:0301bc00022bee25
:0301bd00022aaa69
:0301be0002296ba8
:0301bf00022830e3
:0301c0000226fa1a
:0301c1000225c94b
:0301c20002249c78
:0301c300022373a1
:0301c400022250c4
:0301c500022131e3
:0301c600022016fe
:0301c700021f0014
:0301c800021def26
:0301c900021ce233
:0301ca00021bda3b
:0301cb00021ad73e
:0301cc000219d83d
:0301cd000218de37
:0301ce000217e92c
:0301cf000216f91c
:0301d00002160d07
:0301d100021526ee
:0301d200021443d1
:0301d300021366ae
:0301d40002128d87
:0301d5000211b95b
:0301d6000210e92b
:0301d70002101ff4
:0301d800020f59ba
:0301d900020e987b
:0301da00020ddc37
:0301db00020d24ee
:0301dc00020c72a0
:0301dd00020bc44e
:0301de00020b1bf6
:0301df00020a779a
:0301e0000209d73a
:0301e10002093dd3
:0301e2000208a769
:0301e300020817f8
:0301e40002078b84
:0301e5000207040a
:0301e6000206818d
:0301e70002060409
:0301e80002058c81
:0301e900020518f4
:0301ea000204a963
:0301eb00020440cb
:0301ec000203db30
:0301ed0002037b8f
:0301ee00020320e9
:0301ef000202c940
:0301f00002027890
:0301f10002022cdb
:0301f2000201e423
:0301f3000201a264
:0301f400020164a1
:0301f50002012bd9
:0301f6000200f80c
:0301f7000200c93a
:0301f80002009f63
:0301f90002007a87
:0301fa0002005aa6
:0301fb0002003fc0
:0301fc00020028d6
:0301fd00020017e6
:0301fe0002000bf1
:0301ff00020003f8
:00000001FF
