:03000000000000fd
:0300010003fe6e8d
:0300020003fcdc20
:0300030003fb4ab2
:0300040003f9b845
:0300050003f825d8
:0300060003f6936b
:0300070003f501fd
:0300080003f36f90
:0300090003f1dd23
:03000a0003f04bb5
:03000b0003eeba47
:03000c0003ed28d9
:03000d0003eb966c
:03000e0003ea04fe
:03000f0003e87291
:0300100003e6e123
:0300110003e54fb5
:0300120003e3be47
:0300130003e22cd9
:0300140003e09b6b
:0300150003df09fd
:0300160003dd788f
:0300170003dbe721
:0300180003da56b2
:0300190003d8c544
:03001a0003d734d5
:03001b0003d5a367
:03001c0003d412f8
:03001d0003d28289
:03001e0003d0f11b
:03001f0003cf61ab
:0300200003cdd13c
:0300210003cc41cc
:0300220003cab15d
:0300230003c921ed
:0300240003c7917e
:0300250003c6010e
:0300260003c4729e
:0300270003c2e32e
:0300280003c154bd
:0300290003bfc44e
:03002a0003be36dc
:03002b0003bca76c
:03002c0003bb18fb
:03002d0003b98a8a
:03002e0003b7fc19
:03002f0003b66ea7
:0300300003b4e036
:0300310003b352c4
:0300320003b1c552
:0300330003b037e0
:0300340003aeaa6e
:0300350003ad1dfb
:0300360003ab9188
:0300370003aa0415
:0300380003a878a2
:0300390003a6ec2f
:03003a0003a560bb
:03003b0003a3d448
:03003c0003a249d3
:03003d0003a0be5f
:03003e00039f33ea
:03003f00039da876
:03004000039c1d01
:03004100039a938c
:0300420003990916
:0300430003977fa1
:030044000395f62b
:0300450003946cb5
:030046000392e33f
:0300470003915bc7
:03004800038fd251
:03004900038e4ad9
:03004a00038cc262
:03004b00038b3aea
:03004c000389b372
:03004d0003882cf9
:03004e000386a581
:03004f0003851f07
:030050000383988f
:0300510003821215
:0300520003808d9b
:03005300037f0820
:03005400037d83a6
:03005500037bfe2c
:03005600037a79b1
:030057000378f536
:03005800037772b9
:030059000375ee3e
:03005a0003746bc1
:03005b000372e944
:03005c00037166c7
:03005d00036fe44a
:03005e00036e62cc
:03005f00036ce14e
:03006000036b60cf
:030061000369df51
:0300620003685fd1
:030063000366df52
:03006400036560d1
:030065000363e151
:03006600036262d0
:030067000360e350
:03006800035f65ce
:03006900035de84c
:03006a00035c6bc9
:03006b00035aee47
:03006c00035971c4
:03006d000357f541
:03006e0003567abc
:03006f000354fe39
:03007000035384b3
:030071000352092e
:0300720003508fa9
:03007300034f1622
:03007400034d9c9d
:03007500034c2415
:03007600034aab8f
:0300770003493406
:030078000347bc7f
:03007900034645f6
:03007a000344cf6d
:03007b00034359e3
:03007c000341e35a
:03007d0003406ecf
:03007e00033ef945
:03007f00033d85b9
:03008000033c112d
:03008100033a9ea1
:0300820003392b14
:030083000337b987
:03008400033647f9
:030085000334d66b
:03008600033365dc
:030087000331f44e
:03008800033085bd
:03008900032f152d
:03008a00032da69d
:03008b00032c380b
:03008c00032aca7a
:03008d0003295de7
:03008e000327f055
:03008f00032684c1
:030090000325182d
:030091000323ad99
:0300920003224204
:030093000320d86f
:03009400031f6ed9
:03009500031e0542
:03009600031c9cac
:03009700031b3414
:030098000319cd7c
:03009900031866e3
:03009a0003170049
:03009b0003159ab0
:03009c0003143515
:03009d000312d07b
:03009e0003116cdf
:03009f0003100843
:0300a000030ea6a6
:0300a100030d4309
:0300a200030be16c
:0300a300030a80cd
:0300a4000309202d
:0300a5000307c08e
:0300a600030660ee
:0300a7000305024c
:0300a8000303a3ac
:0300a90003024609
:0300aa000300e967
:0300ab0002ff8cc5
:0300ac0002fe3120
:0300ad0002fcd67c
:0300ae0002fb7bd7
:0300af0002fa2131
:0300b00002f8c88b
:0300b10002f76fe4
:0300b20002f6173c
:0300b30002f4c094
:0300b40002f36aea
:0300b50002f21341
:0300b60002f0be97
:0300b70002ef69ec
:0300b80002ee1540
:0300b90002ecc294
:0300ba0002eb6fe7
:0300bb0002ea1d39
:0300bc0002e8cc8b
:0300bd0002e77bdc
:0300be0002e62b2c
:0300bf0002e4dc7c
:0300c00002e38dcb
:0300c10002e23f19
:0300c20002e0f267
:0300c30002dfa5b4
:0300c40002de5900
:0300c50002dd0e4b
:0300c60002dbc397
:0300c70002da79e1
:0300c80002d9302a
:0300c90002d7e873
:0300ca0002d6a0bb
:0300cb0002d55902
:0300cc0002d41348
:0300cd0002d2cd8f
:0300ce0002d189d3
:0300cf0002d04418
:0300d00002cf015b
:0300d10002cdbe9f
:0300d20002cc7de0
:0300d30002cb3b22
:0300d40002c9fb63
:0300d50002c8bba3
:0300d60002c77de1
:0300d70002c63e20
:0300d80002c5015d
:0300d90002c3c49b
:0300da0002c288d7
:0300db0002c14d12
:0300dc0002c0134c
:0300dd0002bed987
:0300de0002bda1bf
:0300df0002bc69f7
:0300e00002bb312f
:0300e10002b9fb66
:0300e20002b8c59c
:0300e30002b790d1
:0300e40002b65c05
:0300e50002b52938
:0300e60002b3f76b
:0300e70002b2c59d
:0300e80002b194ce
:0300e90002b064fe
:0300ea0002af352d
:0300eb0002ae065c
:0300ec0002acd98a
:0300ed0002abacb7
:0300ee0002aa80e3
:0300ef0002a9540f
:0300f00002a82a39
:0300f10002a70162
:0300f20002a5d88c
:0300f30002a4b0b4
:0300f40002a389db
:0300f50002a26301
:0300f60002a13d27
:0300f70002a0194b
:0300f800029ef570
:0300f900029dd293
:0300fa00029cb0b5
:0300fb00029b8fd6
:0300fc00029a6ff6
:0300fd0002995015
:0300fe0002983134
:0300ff0002971451
:030100000295f76e
:030101000294db8a
:030102000293c0a5
:030103000292a6bf
:0301040002918cd9
:03010500029074f1
:03010600028f5d08
:03010700028e461f
:03010800028d3035
:03010900028c1b4a
:03010a00028b075e
:03010b000289f472
:03010c000288e284
:03010d000287d195
:03010e000286c1a5
:03010f000285b1b5
:030110000284a3c3
:03011100028395d1
:03011200028289dd
:0301130002817de9
:03011400028072f4
:03011500027f68fe
:03011600027e5f07
:03011700027d570f
:03011800027c5016
:03011900027b4a1c
:03011a00027a4422
:03011b0002794026
:03011c0002783d29
:03011d0002773a2c
:03011e000276392d
:03011f000275382e
:030120000274392d
:0301210002733a2c
:0301220002723c2a
:0301230002714026
:0301240002704422
:03012500026f491d
:03012600026e4f17
:03012700026d570f
:03012800026c5f07
:03012900026b68fe
:03012a00026a72f4
:03012b0002697de9
:03012c00026889dd
:03012d00026796d0
:03012e000266a4c2
:03012f000265b3b3
:030130000264c3a3
:030131000263d492
:030132000262e680
:030133000261f96d
:0301340002610d58
:0301350002602243
:03013600025f372e
:03013700025e4e17
:03013800025d66ff
:03013900025c7fe6
:03013a00025b99cc
:03013b00025ab4b1
:03013c000259d095
:03013d000258ed78
:03013e0002580b59
:03013f0002572a3a
:0301400002564a1a
:0301410002556cf8
:0301420002548ed6
:030143000253b1b3
:030144000252d58f
:030145000251fa6a
:0301460002512142
:030147000250481b
:03014800024f70f3
:03014900024e9ac9
:03014a00024dc49f
:03014b00024cef74
:03014c00024c1c46
:03014d00024b4a18
:03014e00024a78ea
:03014f000249a8ba
:030150000248d989
:0301510002480a57
:0301520002473d24
:03015300024671f0
:030154000245a6bb
:030155000244dc85
:030156000244134d
:0301570002434c14
:03015800024285db
:030159000241bfa1
:03015a000240fb65
:03015b0002403728
:03015c00023f75ea
:03015d00023eb3ac
:03015e00023df36c
:03015f00023d342a
:03016000023c76e8
:03016100023bb9a5
:03016200023afd61
:03016300023a421b
:03016400023988d5
:030165000238d08d
:0301660002381844
:03016700023762fa
:030168000236acb0
:030169000235f864
:03016a0002354516
:03016b00023493c8
:03016c000233e279
:03016d0002333228
:03016e00023283d7
:03016f000231d684
:0301700002312930
:0301710002307edb
:03017200022fd485
:03017300022f2a2e
:03017400022e82d6
:03017500022ddc7c
:03017600022d3621
:03017700022c91c6
:03017800022bee69
:03017900022b4b0b
:03017a00022aaaac
:03017b00022a0a4b
:03017c0002296bea
:03017d000228cd88
:03017e0002283024
:03017f00022795bf
:030180000226fa5a
:03018100022661f2
:030182000225c98a
:0301830002253220
:0301840002249cb6
:030185000224074a
:03018600022373de
:030187000222e170
:0301880002225000
:030189000221c090
:03018a000221311e
:03018b000220a3ac
:03018c0002201638
:03018d00021f8bc3
:03018e00021f004d
:03018f00021e77d6
:03019000021def5e
:03019100021d68e4
:03019200021ce26a
:03019300021c5eed
:03019400021bda71
:03019500021b58f2
:03019600021ad773
:03019700021a57f2
:030198000219d871
:0301990002195bed
:03019a000218de6a
:03019b00021863e4
:03019c000217e95e
:03019d00021770d6
:03019e000216f94d
:03019f00021682c3
:0301a00002160d37
:0301a100021599ab
:0301a2000215261d
:0301a3000214b48f
:0301a400021443ff
:0301a5000213d46e
:0301a600021366db
:0301a7000212f948
:0301a80002128db3
:0301a9000212221d
:0301aa000211b986
:0301ab00021151ed
:0301ac000210e955
:0301ad00021084b9
:0301ae0002101f1d
:0301af00020fbb81
:0301b000020f59e2
:0301b100020ef843
:0301b200020e98a2
:0301b300020e3900
:0301b400020ddc5d
:0301b500020d7fb9
:0301b600020d2413
:0301b700020cca6d
:0301b800020c72c4
:0301b900020c1a1b
:0301ba00020bc471
:0301bb00020b6fc5
:0301bc00020b1b18
:0301bd00020ac86b
:0301be00020a77bb
:0301bf00020a270a
:0301c0000209d75a
:0301c10002098aa6
:0301c20002093df2
:0301c3000208f23d
:0301c4000208a787
:0301c50002085ecf
:0301c60002081715
:0301c7000207d05c
:0301c80002078ba0
:0301c900020747e3
:0301ca0002070425
:0301cb000206c267
:0301cc00020681a7
:0301cd00020642e5
:0301ce0002060422
:0301cf000205c75f
:0301d00002058c99
:0301d100020551d3
:0301d2000205180b
:0301d3000204e043
:0301d4000204a979
:0301d500020474ad
:0301d600020440e0
:0301d70002040d12
:0301d8000203db44
:0301d9000203aa74
:0301da0002037ba2
:0301db0002034dcf
:0301dc00020320fb
:0301dd000202f427
:0301de000202c951
:0301df000202a079
:0301e000020278a0
:0301e100020251c6
:0301e20002022cea
:0301e3000202070e
:0301e4000201e431
:0301e5000201c252
:0301e6000201a271
:0301e70002018290
:0301e800020164ad
:0301e900020147c9
:0301ea0002012be4
:0301eb00020111fd
:0301ec000200f816
:0301ed000200e02d
:0301ee000200c943
:0301ef000200b358
:0301f00002009f6b
:0301f10002008c7d
:0301f20002007a8e
:0301f3000200699e
:0301f40002005aac
:0301f50002004cb9
:0301f60002003fc5
:0301f700020033d0
:0301f800020028da
:0301f90002001fe2
:0301fa00020017e9
:0301fb00020010ef
:0301fc0002000bf3
:0301fd00020007f6
:0301fe00020003f9
:0301ff00020002f9
:03020000000000fb
:00000001FF
